:100000000C9434000C946D000C9449000C949800EE
:100010000C9449000C9449000C9449000C9449003C
:100020000C9449000C9449000C9449000C9449002C
:100030000C9449000C9449000C9449000C9449001C
:100040000C9449000C9449000C9449000C9449000C
:100050000C9449000C9449000C9449000C944900FC
:100060000C9449000C94490011241FBECFEFD8E036
:10007000DEBFCDBF13E0A0E0B1E0E8EAF5E002C0EA
:1000800005900D92AC30B107D9F70E944B000C944B
:10009000D2020C9400000E9407010E94CB015298EA
:1000A00023985A9A2B9AE9E6F0E080818360808356
:1000B000E89AE8E6F0E0808181608083EBE6F0E09A
:1000C00080818061808324982C9A78948FE99FE0C6
:1000D0000197F1F700C00000F9CF1F920F920FB601
:1000E0000F9211242F933F934F935F936F937F93BE
:1000F0008F939F93AF93BF93EF93FF931B9B04C08A
:1001000081E00E94830203C082E00E948302FF918B
:10011000EF91BF91AF919F918F917F916F915F917F
:100120004F913F912F910F900FBE0F901F901895F8
:100130001F920F920FB60F9211242F933F934F935C
:100140005F936F937F938F939F93AF93BF93EF933F
:10015000FF931C9B03C083E00E948302FF91EF91F9
:10016000BF91AF919F918F917F916F915F914F91CF
:100170003F912F910F900FBE0F901F9018955F9891
:1001800088230CF45F9A95E09A95F1F700005E9849
:1001900086FD5E9A95E09A95F1F700005D9885FDE1
:1001A0005D9A95E09A95F1F700005C9884FD5C9A61
:1001B00085E08A95F1F700002A9A95E09A95F1F783
:1001C00000002A9885E08A95F1F700000895CF9302
:1001D000C82F289A2A980E94BF008C2F8295807F72
:1001E0000E94BF00CF910895CF93C82F28982A98D6
:1001F0000E94BF008C2F8295807F0E94BF008FEDF0
:1002000091E00197F1F700C00000CF9108952FEF22
:1002100081EE94E0215080409040E1F700C0000062
:10022000579A569A559A549A229A209A219A83E874
:100230008093800083E0809381001092850010926B
:1002400084008AE590E09093890080938800289844
:100250002A9880E30E94BF008FE39CE90197F1F7A1
:1002600000C0000080E30E94BF008FE193E001978F
:10027000F1F700C0000080E30E94BF008FE193E02F
:100280000197F1F700C0000088E20E94BF008FE3F1
:1002900091E00197F1F700C0000088E20E94F400AD
:1002A0008FE391E00197F1F700C0000088E00E9421
:1002B000F4008FE391E00197F1F700C0000081E0C6
:1002C0000E94F4008FE79EE30197F1F700C0000061
:1002D00086E00E94F4008FE391E00197F1F700C0FF
:1002E00000008CE00E94F4008FE391E00197F1F7A9
:1002F00000C000000895611104C080680E94F400ED
:100300000895613029F4805C80680E94F4000895AB
:10031000623029F48C5E80680E94F4000895633096
:1003200021F48C5A80680E94F400089581E00E94B4
:10033000F40008950F931F93CF93DF9300D0CDB7B0
:10034000DEB78C011A821982E981FA81E80FF91F60
:1003500080818823C9F0E981FA81E00FF11F808153
:100360000E94E70089819A8101969A8389838FE3AD
:1003700091E00197F1F700C00000E981FA81E00FF8
:10038000F11F80818111E7CF0F900F90DF91CF9106
:100390001F910F9108950F931F93CF93DF93909127
:1003A0000001C0E0EC2FF0E0EE0FFF1FEE0FFF1F8B
:1003B000EE0FFF1FEF5FFE4F8281C80F9C1790F773
:1003C000E92FF0E0EE0FFF1FEE0FFF1FEE0FFF1FF4
:1003D000EF5FFE4F82810C2F081B0E9496012FEFCA
:1003E00083EF91E0215080409040E1F700C0000091
:1003F00010910001812F90E0202F30E02E5F3F4FC1
:10040000821793076CF1C1502C2F30E02150310935
:10041000281739070CF44CC0CEEFC10F1F5F1C1713
:10042000B8F0D0E06D2F80E00E947B01EC2FF0E06F
:10043000EE0FFF1FEE0FFF1FEE0FFF1FEF5FFE4FD0
:10044000808191810E949A01DF5FCF5F1C1750F776
:1004500062E080E00E947B018EE30E94E7004EC0D4
:10046000C3E0C00FC017C8F0102FD0E06D2F80E0A0
:100470000E947B01E12FF0E0EE0FFF1FEE0FFF1F48
:10048000EE0FFF1FEF5FFE4F808191810E949A0166
:10049000DF5F1F5FC11750F701C0D0E0609100011E
:1004A000601B80E00E947B018EE30E94E70001C098
:1004B000D0E0109100011C1321C0CDEFC10F1C171B
:1004C000B0F06D2F80E00E947B01EC2FF0E0EE0F8A
:1004D000FF1FEE0FFF1FEE0FFF1FEF5FFE4F80812C
:1004E00091810E949A01DF5FCF5F1C1750F763E094
:1004F00080E00E947B018EE30E94E700DF91CF91B4
:100500001F910F910895813079F4E0910001F0E09E
:10051000EE0FFF1FEE0FFF1FEE0FFF1FEF5FFE4FEF
:1005200083818093000132C0823079F4E091000130
:10053000F0E0EE0FFF1FEE0FFF1FEE0FFF1FEF5F4C
:10054000FE4F84818093000121C08330F9F4E09153
:100550000001F0E0EE0FFF1FEE0FFF1FEE0FFF1F79
:10056000EF5FFE4F0680F781E02D309709F0099587
:10057000E0910001F0E0EE0FFF1FEE0FFF1FEE0F06
:10058000FF1FEF5FFE4F8581809300010E94CB012A
:100590002FEF80E792E0215080409040E1F700C0CB
:0805A00000000895F894FFCF5C
:1005A80001F602040301000000E102040002010058
:1005B80000DA02040103040000D3020402000F0061
:1005C80000C5020B0E05040000B9020B0406040066
:1005D80000AD020B0507060000A1020B0608070084
:1005E8000095020B070908000089020B080A090098
:1005F800007D020B090B0A000071020B0A0C0B00AC
:100608000065020B0B0D0C000059020B0C0E0D00BF
:100618000052020B0D0500000044020B19100F00D8
:100628000038020B0F111000002C020B10121100E1
:100638000020020B111312000014020B12141300F5
:100648000008020B1315140000FC010B141615000A
:1006580000F0010B1517160000E4010B161817001F
:1006680000D8010B1719180000D1010B180F000052
:100678000020204578697400202050726F66696CEC
:1006880065203900202050726F66696C652038003B
:10069800202050726F66696C6520370020205072E8
:1006A8006F66696C65203600202050726F66696C31
:1006B80065203500202050726F66696C6520340013
:1006C800202050726F66696C6520320020205072BD
:1006D8006F66696C65203200202050726F66696C05
:1006E80065203100204C6F61642050726F66696C20
:1006F800650020204578697400202050726F666973
:100708006C65203900202050726F66696C6520384E
:1007180000202050726F66696C65203700202050D9
:10072800726F66696C65203600202050726F6669AA
:100738006C65203500202050726F66696C65203426
:1007480000202050726F66696C65203300202050AD
:10075800726F66696C65203200202050726F66697E
:100768006C6520310020536176652050726F666990
:100778006C650020204C6F61640020205361766511
:1007880000202052696768743A20203530202020E4
:1007980031303020200020204C656674203A20201B
:0C07A800353020202031303020200000AF
:00000001FF
